21:54:12.366256 Out 30:f7:72:29:e1:d3 ethertype IPv4 (0x0800), length 185: 192.168.43.135.5353 > 224.0.0.251.5353: 0 [9q] PTR (QM)? _nfs._tcp.local. PTR (QM)? _ipp._tcp.local. PTR (QM)? _ipps._tcp.local. PTR (QM)? _ftp._tcp.local. PTR (QM)? _webdav._tcp.local. PTR (QM)? _webdavs._tcp.local. PTR (QM)? _sftp-ssh._tcp.local. PTR (QM)? _smb._tcp.local. PTR (QM)? _afpovertcp._tcp.local. (141)
	0x0000:  4500 00a9 09b5 4000 ff11 a463 c0a8 2b87
	0x0010:  e000 00fb 14e9 14e9 0095 4c62 0000 0000
	0x0020:  0009 0000 0000 0000 045f 6e66 7304 5f74
	0x0030:  6370 056c 6f63 616c 0000 0c00 0104 5f69
	0x0040:  7070 c011 000c 0001 055f 6970 7073 c011
	0x0050:  000c 0001 045f 6674 70c0 1100 0c00 0107
	0x0060:  5f77 6562 6461 76c0 1100 0c00 0108 5f77
	0x0070:  6562 6461 7673 c011 000c 0001 095f 7366
	0x0080:  7470 2d73 7368 c011 000c 0001 045f 736d
	0x0090:  62c0 1100 0c00 010b 5f61 6670 6f76 6572
	0x00a0:  7463 70c0 1100 0c00 01
21:54:12.659611 Out 30:f7:72:29:e1:d3 ethertype IPv4 (0x0800), length 68: 192.168.43.135.36996 > 192.30.253.112.443: Flags [.], ack 1267828794, win 594, options [nop,nop,TS val 2028114313 ecr 2518858142], length 0
	0x0000:  4500 0034 26a8 4000 4006 6a5d c0a8 2b87
	0x0010:  c01e fd70 9084 01bb 8272 3aa3 4b91 883a
	0x0020:  8010 0252 4d5e 0000 0101 080a 78e2 9189
	0x0030:  9622 b99e
21:54:12.695703 Out 30:f7:72:29:e1:d3 ethertype IPv6 (0x86dd), length 205: 2405:204:a105:71a:9df5:216e:3dd2:410c.5353 > ff02::fb.5353: 0 [9q] PTR (QM)? _nfs._tcp.local. PTR (QM)? _ipp._tcp.local. PTR (QM)? _ipps._tcp.local. PTR (QM)? _ftp._tcp.local. PTR (QM)? _webdav._tcp.local. PTR (QM)? _webdavs._tcp.local. PTR (QM)? _sftp-ssh._tcp.local. PTR (QM)? _smb._tcp.local. PTR (QM)? _afpovertcp._tcp.local. (141)
	0x0000:  6009 7bd7 0095 11ff 2405 0204 a105 071a
	0x0010:  9df5 216e 3dd2 410c ff02 0000 0000 0000
	0x0020:  0000 0000 0000 00fb 14e9 14e9 0095 0d25
	0x0030:  0000 0000 0009 0000 0000 0000 045f 6e66
	0x0040:  7304 5f74 6370 056c 6f63 616c 0000 0c00
	0x0050:  0104 5f69 7070 c011 000c 0001 055f 6970
	0x0060:  7073 c011 000c 0001 045f 6674 70c0 1100
	0x0070:  0c00 0107 5f77 6562 6461 76c0 1100 0c00
	0x0080:  0108 5f77 6562 6461 7673 c011 000c 0001
	0x0090:  095f 7366 7470 2d73 7368 c011 000c 0001
	0x00a0:  045f 736d 62c0 1100 0c00 010b 5f61 6670
	0x00b0:  6f76 6572 7463 70c0 1100 0c00 01
21:54:13.532254  In 38:a4:ed:e1:ac:7f ethertype IPv4 (0x0800), length 68: 192.30.253.112.443 > 192.168.43.135.36996: Flags [.], ack 1, win 41, options [nop,nop,TS val 2518860895 ecr 2028072065], length 0
	0x0000:  4528 0034 c451 4000 3106 db8b c01e fd70
	0x0010:  c0a8 2b87 01bb 9084 4b91 883a 8272 3aa4
	0x0020:  8010 0029 e9cd 0000 0101 080a 9622 c45f
	0x0030:  78e1 ec81
21:54:14.963714 Out 30:f7:72:29:e1:d3 ethertype IPv4 (0x0800), length 68: 192.168.43.135.36992 > 192.30.253.112.443: Flags [.], ack 3445405431, win 1444, options [nop,nop,TS val 2028116614 ecr 2518858845], length 0
	0x0000:  4500 0034 14fb 4000 4006 7c0a c0a8 2b87
	0x0010:  c01e fd70 9080 01bb e663 2e8d cd5c b6f7
	0x0020:  8010 05a4 35f0 0000 0101 080a 78e2 9a86
	0x0030:  9622 bc5d
21:54:14.967352   M 38:a4:ed:e1:ac:7f ethertype IPv6 (0x86dd), length 88: fe80::9cbc:26ff:fec8:eb23 > ff02::1:ffd2:410c: ICMP6, neighbor solicitation, who has 2405:204:a105:71a:9df5:216e:3dd2:410c, length 32
	0x0000:  6000 0000 0020 3aff fe80 0000 0000 0000
	0x0010:  9cbc 26ff fec8 eb23 ff02 0000 0000 0000
	0x0020:  0000 0001 ffd2 410c 8700 ac26 0000 0000
	0x0030:  2405 0204 a105 071a 9df5 216e 3dd2 410c
	0x0040:  0101 38a4 ede1 ac7f
21:54:14.967416 Out 30:f7:72:29:e1:d3 ethertype IPv6 (0x86dd), length 88: 2405:204:a105:71a:9df5:216e:3dd2:410c > fe80::9cbc:26ff:fec8:eb23: ICMP6, neighbor advertisement, tgt is 2405:204:a105:71a:9df5:216e:3dd2:410c, length 32
	0x0000:  6000 0000 0020 3aff 2405 0204 a105 071a
	0x0010:  9df5 216e 3dd2 410c fe80 0000 0000 0000
	0x0020:  9cbc 26ff fec8 eb23 8800 cbaf 6000 0000
	0x0030:  2405 0204 a105 071a 9df5 216e 3dd2 410c
	0x0040:  0201 30f7 7229 e1d3
21:54:15.219713 Out 30:f7:72:29:e1:d3 ethertype IPv4 (0x0800), length 68: 192.168.43.135.48374 > 34.199.95.10.443: Flags [.], ack 1954257211, win 335, options [nop,nop,TS val 3148292008 ecr 304096636], length 0
	0x0000:  4500 0034 2e97 4000 4006 9e2c c0a8 2b87
	0x0010:  22c7 5f0a bcf6 01bb 2edc 395d 747b 993b
	0x0020:  8010 014f bfdf 0000 0101 080a bba7 1fa8
	0x0030:  1220 257c
21:54:15.379005  In 38:a4:ed:e1:ac:7f ethertype IPv4 (0x0800), length 68: 192.30.253.112.443 > 192.168.43.135.36992: Flags [.], ack 1, win 44, options [nop,nop,TS val 2518861460 ecr 2028074740], length 0
	0x0000:  4528 0034 25c0 4000 3006 7b1d c01e fd70
	0x0010:  c0a8 2b87 01bb 9080 cd5c b6f7 e663 2e8e
	0x0020:  8010 002c d4c2 0000 0101 080a 9622 c694
	0x0030:  78e1 f6f4
21:54:15.502720  In 38:a4:ed:e1:ac:7f ethertype IPv4 (0x0800), length 68: 34.199.95.10.443 > 192.168.43.135.48374: Flags [.], ack 1, win 66, options [nop,nop,TS val 304099253 ecr 3148250328], length 0
	0x0000:  4528 0034 7dda 4000 e906 a5c0 22c7 5f0a
	0x0010:  c0a8 2b87 01bb bcf6 747b 993b 2edc 395e
	0x0020:  8010 0042 5983 0000 0101 080a 1220 2fb5
	0x0030:  bba6 7cd8
21:54:15.731629 Out 30:f7:72:29:e1:d3 ethertype IPv4 (0x0800), length 68: 192.168.43.135.55536 > 35.171.223.36.443: Flags [.], ack 4221431977, win 263, options [nop,nop,TS val 1421415821 ecr 115182385], length 0
	0x0000:  4500 0034 7ce1 4000 4006 cee3 c0a8 2b87
	0x0010:  23ab df24 d8f0 01bb 2ca6 95ff fb9d f0a9
	0x0020:  8010 0107 00c9 0000 0101 080a 54b9 158d
	0x0030:  06dd 8b31
21:54:16.110624  In 38:a4:ed:e1:ac:7f ethertype IPv4 (0x0800), length 68: 35.171.223.36.443 > 192.168.43.135.55536: Flags [.], ack 1, win 176, options [nop,nop,TS val 115185063 ecr 1421373930], length 0
	0x0000:  4528 0034 8aaa 4000 e806 18f2 23ab df24
	0x0010:  c0a8 2b87 01bb d8f0 fb9d f0a9 2ca6 9600
	0x0020:  8010 00b0 9a4c 0000 0101 080a 06dd 95a7
	0x0030:  54b8 71ea
21:54:17.267663 Out 30:f7:72:29:e1:d3 ethertype IPv4 (0x0800), length 68: 192.168.43.135.42124 > 192.30.253.116.443: Flags [.], ack 2991470160, win 277, options [nop,nop,TS val 3603306709 ecr 1865474420], length 0
	0x0000:  4500 0034 a613 4000 4006 eaed c0a8 2b87
	0x0010:  c01e fd74 a48c 01bb 6aca f62f b24e 3650
	0x0020:  8010 0115 9bc3 0000 0101 080a d6c6 18d5
	0x0030:  6f30 e174
21:54:17.365379  In 38:a4:ed:e1:ac:7f ethertype IPv4 (0x0800), length 99: 91.189.92.19.443 > 192.168.43.135.41986: Flags [P.], seq 729203147:729203178, ack 3117125030, win 405, options [nop,nop,TS val 2636878001 ecr 276689685], length 31
	0x0000:  4528 0053 0f72 4000 2f06 980b 5bbd 5c13
	0x0010:  c0a8 2b87 01bb a402 2b76 c1cb b9cb 8da6
	0x0020:  8018 0195 2d6f 0000 0101 080a 9d2b 90b1
	0x0030:  107d f315 1503 0300 1a0e c5af 381f 0c50
	0x0040:  21c4 ea27 31a9 5f3c 2a43 242b 3ab9 fa8b
	0x0050:  94fa a6
21:54:17.365406  In 38:a4:ed:e1:ac:7f ethertype IPv4 (0x0800), length 68: 91.189.92.19.443 > 192.168.43.135.41986: Flags [F.], seq 31, ack 1, win 405, options [nop,nop,TS val 2636878001 ecr 276689685], length 0
	0x0000:  4528 0034 0f73 4000 2f06 9829 5bbd 5c13
	0x0010:  c0a8 2b87 01bb a402 2b76 c1ea b9cb 8da6
	0x0020:  8011 0195 c526 0000 0101 080a 9d2b 90b1
	0x0030:  107d f315
21:54:17.365536 Out 30:f7:72:29:e1:d3 ethertype IPv4 (0x0800), length 99: 192.168.43.135.41986 > 91.189.92.19.443: Flags [P.], seq 1:32, ack 32, win 840, options [nop,nop,TS val 276739661 ecr 2636878001], length 31
	0x0000:  4500 0053 620f 4000 4006 3496 c0a8 2b87
	0x0010:  5bbd 5c13 a402 01bb b9cb 8da6 2b76 c1eb
	0x0020:  8018 0348 6366 0000 0101 080a 107e b64d
	0x0030:  9d2b 90b1 1503 0300 1a00 0000 0000 0000
	0x0040:  0ab0 a867 a38c 6bc7 a6c9 8041 f8ef 5d97
	0x0050:  d4ab 56
21:54:17.365583 Out 30:f7:72:29:e1:d3 ethertype IPv4 (0x0800), length 68: 192.168.43.135.41986 > 91.189.92.19.443: Flags [F.], seq 32, ack 32, win 840, options [nop,nop,TS val 276739661 ecr 2636878001], length 0
	0x0000:  4500 0034 6210 4000 4006 34b4 c0a8 2b87
	0x0010:  5bbd 5c13 a402 01bb b9cb 8dc5 2b76 c1eb
	0x0020:  8011 0348 001b 0000 0101 080a 107e b64d
	0x0030:  9d2b 90b1
21:54:17.691308  In 38:a4:ed:e1:ac:7f ethertype IPv4 (0x0800), length 56: 91.189.92.19.443 > 192.168.43.135.41986: Flags [R], seq 729203179, win 0, length 0
	0x0000:  4528 0028 ecc3 4000 2f06 bae4 5bbd 5c13
	0x0010:  c0a8 2b87 01bb a402 2b76 c1eb 0000 0000
	0x0020:  5004 0000 78c1 0000
21:54:17.691359  In 38:a4:ed:e1:ac:7f ethertype IPv4 (0x0800), length 56: 91.189.92.19.443 > 192.168.43.135.41986: Flags [R], seq 729203179, win 0, length 0
	0x0000:  4528 0028 ecc4 4000 2f06 bae3 5bbd 5c13
	0x0010:  c0a8 2b87 01bb a402 2b76 c1eb 0000 0000
	0x0020:  5004 0000 78c1 0000
21:54:17.691364  In 38:a4:ed:e1:ac:7f ethertype IPv4 (0x0800), length 68: 192.30.253.116.443 > 192.168.43.135.42124: Flags [.], ack 1, win 76, options [nop,nop,TS val 1865477103 ecr 3603264736], length 0
	0x0000:  4528 0034 9279 4000 3006 0e60 c01e fd74
	0x0010:  c0a8 2b87 01bb a48c b24e 3650 6aca f630
	0x0020:  8010 004c 3606 0000 0101 080a 6f30 ebef
	0x0030:  d6c5 74e0
21:54:20.083630 Out 30:f7:72:29:e1:d3 ethertype IPv4 (0x0800), length 68: 192.168.43.135.45068 > 117.18.237.29.80: Flags [.], ack 1492748364, win 266, options [nop,nop,TS val 1038250824 ecr 1332308536], length 0
	0x0000:  4500 0034 7e7f 4000 4006 6de5 c0a8 2b87
	0x0010:  7512 ed1d b00c 0050 e87c cbcf 58f9 884c
	0x0020:  8010 010a 7698 0000 0101 080a 3de2 7348
	0x0030:  4f69 6a38
21:54:20.163900  In 38:a4:ed:e1:ac:7f ethertype IPv4 (0x0800), length 68: 117.18.237.29.80 > 192.168.43.135.45068: Flags [.], ack 1, win 290, options [nop,nop,TS val 1332311089 ecr 1038148228], length 0
	0x0000:  4528 0034 8de8 4000 3906 6554 7512 ed1d
	0x0010:  c0a8 2b87 0050 b00c 58f9 884c e87c cbd0
	0x0020:  8010 0122 fd4b 0000 0101 080a 4f69 7431
	0x0030:  3de0 e284
21:54:20.530489   M 38:a4:ed:e1:ac:7f ethertype IPv6 (0x86dd), length 88: fe80::9cbc:26ff:fec8:eb23 > ff02::1:ffc4:c608: ICMP6, neighbor solicitation, who has fe80::a9ac:b0bf:96c4:c608, length 32
	0x0000:  6000 0000 0020 3aff fe80 0000 0000 0000
	0x0010:  9cbc 26ff fec8 eb23 ff02 0000 0000 0000
	0x0020:  0000 0001 ffc4 c608 8700 7de8 0000 0000
	0x0030:  fe80 0000 0000 0000 a9ac b0bf 96c4 c608
	0x0040:  0101 38a4 ede1 ac7f
21:54:20.530520 Out 30:f7:72:29:e1:d3 ethertype IPv6 (0x86dd), length 88: fe80::a9ac:b0bf:96c4:c608 > fe80::9cbc:26ff:fec8:eb23: ICMP6, neighbor advertisement, tgt is fe80::a9ac:b0bf:96c4:c608, length 32
	0x0000:  6000 0000 0020 3aff fe80 0000 0000 0000
	0x0010:  a9ac b0bf 96c4 c608 fe80 0000 0000 0000
	0x0020:  9cbc 26ff fec8 eb23 8800 7910 6000 0000
	0x0030:  fe80 0000 0000 0000 a9ac b0bf 96c4 c608
	0x0040:  0201 30f7 7229 e1d3
21:54:23.373404   B 38:a4:ed:e1:ac:7f ethertype ARP (0x0806), length 44: Request who-has 192.168.43.135 tell 192.168.43.1, length 28
	0x0000:  0001 0800 0604 0001 38a4 ede1 ac7f c0a8
	0x0010:  2b01 0000 0000 0000 c0a8 2b87
21:54:23.373426 Out 30:f7:72:29:e1:d3 ethertype ARP (0x0806), length 44: Reply 192.168.43.135 is-at 30:f7:72:29:e1:d3, length 28
	0x0000:  0001 0800 0604 0002 30f7 7229 e1d3 c0a8
	0x0010:  2b87 38a4 ede1 ac7f c0a8 2b01
21:54:23.374652  In 38:a4:ed:e1:ac:7f ethertype IPv4 (0x0800), length 99: 192.30.253.124.443 > 192.168.43.135.37698: Flags [P.], seq 3779396572:3779396603, ack 2868642209, win 31, options [nop,nop,TS val 1881275986 ecr 417365321], length 31
	0x0000:  4528 0053 9a67 4000 3106 054b c01e fd7c
	0x0010:  c0a8 2b87 01bb 9342 e145 03dc aafc 01a1
	0x0020:  8018 001f 7f8c 0000 0101 080a 7021 fe52
	0x0030:  18e0 7d49 1703 0300 1aa6 8a12 0c17 4553
	0x0040:  4489 f560 fe8d 960d 674b 67d7 a9e6 c973
	0x0050:  f09b 10
21:54:23.374884 Out 30:f7:72:29:e1:d3 ethertype IPv4 (0x0800), length 103: 192.168.43.135.37698 > 192.30.253.124.443: Flags [P.], seq 1:36, ack 31, win 245, options [nop,nop,TS val 417426143 ecr 1881275986], length 35
	0x0000:  4500 0057 225d 4000 4006 6e79 c0a8 2b87
	0x0010:  c01e fd7c 9342 01bb aafc 01a1 e145 03fb
	0x0020:  8018 00f5 2d75 0000 0101 080a 18e1 6adf
	0x0030:  7021 fe52 1703 0300 1e00 0000 0000 0000
	0x0040:  0825 b62b 11a9 bb55 66e6 ed48 1fd8 41f2
	0x0050:  9d07 e30f bbe7 d0
21:54:23.667589 Out 30:f7:72:29:e1:d3 ethertype IPv4 (0x0800), length 68: 192.168.43.135.36996 > 192.30.253.112.443: Flags [.], ack 1, win 594, options [nop,nop,TS val 2028125308 ecr 2518860895], length 0
	0x0000:  4500 0034 26a9 4000 4006 6a5c c0a8 2b87
	0x0010:  c01e fd70 9084 01bb 8272 3aa3 4b91 883a
	0x0020:  8010 0252 17aa 0000 0101 080a 78e2 bc7c
	0x0030:  9622 c45f
21:54:23.744436  In 38:a4:ed:e1:ac:7f ethertype IPv4 (0x0800), length 68: 192.30.253.124.443 > 192.168.43.135.37698: Flags [.], ack 36, win 31, options [nop,nop,TS val 1881276180 ecr 417426143], length 0
	0x0000:  4528 0034 9a68 4000 3106 0569 c01e fd7c
	0x0010:  c0a8 2b87 01bb 9342 e145 03fb aafc 01c4
	0x0020:  8010 001f b2dd 0000 0101 080a 7021 ff14
	0x0030:  18e1 6adf
21:54:24.101099  In 38:a4:ed:e1:ac:7f ethertype IPv4 (0x0800), length 68: 192.30.253.112.443 > 192.168.43.135.36996: Flags [.], ack 1, win 41, options [nop,nop,TS val 2518863642 ecr 2028072065], length 0
	0x0000:  4528 0034 c452 4000 3106 db8a c01e fd70
	0x0010:  c0a8 2b87 01bb 9084 4b91 883a 8272 3aa4
	0x0020:  8010 0029 df12 0000 0101 080a 9622 cf1a
	0x0030:  78e1 ec81
21:54:24.230224   M 38:a4:ed:e1:ac:7f ethertype IPv6 (0x86dd), length 88: fe80::9cbc:26ff:fec8:eb23 > ff02::1:ffaf:1b9a: ICMP6, neighbor solicitation, who has 2405:204:a105:71a:2c65:ab01:4aaf:1b9a, length 32
	0x0000:  6000 0000 0020 3aff fe80 0000 0000 0000
	0x0010:  9cbc 26ff fec8 eb23 ff02 0000 0000 0000
	0x0020:  0000 0001 ffaf 1b9a 8700 d24d 0000 0000
	0x0030:  2405 0204 a105 071a 2c65 ab01 4aaf 1b9a
	0x0040:  0101 38a4 ede1 ac7f
21:54:24.230254 Out 30:f7:72:29:e1:d3 ethertype IPv6 (0x86dd), length 88: 2405:204:a105:71a:2c65:ab01:4aaf:1b9a > fe80::9cbc:26ff:fec8:eb23: ICMP6, neighbor advertisement, tgt is 2405:204:a105:71a:2c65:ab01:4aaf:1b9a, length 32
	0x0000:  6000 0000 0020 3aff 2405 0204 a105 071a
	0x0010:  2c65 ab01 4aaf 1b9a fe80 0000 0000 0000
	0x0020:  9cbc 26ff fec8 eb23 8800 ccd3 6000 0000
	0x0030:  2405 0204 a105 071a 2c65 ab01 4aaf 1b9a
	0x0040:  0201 30f7 7229 e1d3
21:54:25.459727 Out 30:f7:72:29:e1:d3 ethertype IPv4 (0x0800), length 68: 192.168.43.135.36992 > 192.30.253.112.443: Flags [.], ack 1, win 1444, options [nop,nop,TS val 2028127098 ecr 2518861460], length 0
	0x0000:  4500 0034 14fc 4000 4006 7c09 c0a8 2b87
	0x0010:  c01e fd70 9080 01bb e663 2e8d cd5c b6f7
	0x0020:  8010 05a4 02c5 0000 0101 080a 78e2 c37a
	0x0030:  9622 c694
21:54:25.715639 Out 30:f7:72:29:e1:d3 ethertype IPv4 (0x0800), length 68: 192.168.43.135.48374 > 34.199.95.10.443: Flags [.], ack 1, win 335, options [nop,nop,TS val 3148302492 ecr 304099253], length 0
	0x0000:  4500 0034 2e98 4000 4006 9e2b c0a8 2b87
	0x0010:  22c7 5f0a bcf6 01bb 2edc 395d 747b 993b
	0x0020:  8010 014f 8cb2 0000 0101 080a bba7 489c
	0x0030:  1220 2fb5
21:54:25.715679 Out 30:f7:72:29:e1:d3 ethertype IPv6 (0x86dd), length 88: fe80::a9ac:b0bf:96c4:c608 > fe80::9cbc:26ff:fec8:eb23: ICMP6, neighbor solicitation, who has fe80::9cbc:26ff:fec8:eb23, length 32
	0x0000:  6000 0000 0020 3aff fe80 0000 0000 0000
	0x0010:  a9ac b0bf 96c4 c608 fe80 0000 0000 0000
	0x0020:  9cbc 26ff fec8 eb23 8700 e4a1 0000 0000
	0x0030:  fe80 0000 0000 0000 9cbc 26ff fec8 eb23
	0x0040:  0101 30f7 7229 e1d3
21:54:25.720770  In 38:a4:ed:e1:ac:7f ethertype IPv6 (0x86dd), length 80: fe80::9cbc:26ff:fec8:eb23 > fe80::a9ac:b0bf:96c4:c608: ICMP6, neighbor advertisement, tgt is fe80::9cbc:26ff:fec8:eb23, length 24
	0x0000:  6000 0000 0018 3aff fe80 0000 0000 0000
	0x0010:  9cbc 26ff fec8 eb23 fe80 0000 0000 0000
	0x0020:  a9ac b0bf 96c4 c608 8800 a99e c000 0000
	0x0030:  fe80 0000 0000 0000 9cbc 26ff fec8 eb23
21:54:26.038785  In 38:a4:ed:e1:ac:7f ethertype IPv4 (0x0800), length 68: 192.30.253.112.443 > 192.168.43.135.36992: Flags [.], ack 1, win 44, options [nop,nop,TS val 2518864087 ecr 2028074740], length 0
	0x0000:  4528 0034 25c1 4000 3006 7b1c c01e fd70
	0x0010:  c0a8 2b87 01bb 9080 cd5c b6f7 e663 2e8e
	0x0020:  8010 002c ca7f 0000 0101 080a 9622 d0d7
	0x0030:  78e1 f6f4
21:54:26.038796  In 38:a4:ed:e1:ac:7f ethertype IPv4 (0x0800), length 68: 34.199.95.10.443 > 192.168.43.135.48374: Flags [.], ack 1, win 66, options [nop,nop,TS val 304101878 ecr 3148250328], length 0
	0x0000:  4528 0034 7ddb 4000 e906 a5bf 22c7 5f0a
	0x0010:  c0a8 2b87 01bb bcf6 747b 993b 2edc 395e
	0x0020:  8010 0042 4f42 0000 0101 080a 1220 39f6
	0x0030:  bba6 7cd8
21:54:26.227635 Out 30:f7:72:29:e1:d3 ethertype IPv4 (0x0800), length 68: 192.168.43.135.55536 > 35.171.223.36.443: Flags [.], ack 1, win 263, options [nop,nop,TS val 1421426305 ecr 115185063], length 0
	0x0000:  4500 0034 7ce2 4000 4006 cee2 c0a8 2b87
	0x0010:  23ab df24 d8f0 01bb 2ca6 95ff fb9d f0a9
	0x0020:  8010 0107 cd5e 0000 0101 080a 54b9 3e81
	0x0030:  06dd 95a7
21:54:26.659798  In 38:a4:ed:e1:ac:7f ethertype IPv4 (0x0800), length 68: 35.171.223.36.443 > 192.168.43.135.55536: Flags [.], ack 1, win 176, options [nop,nop,TS val 115187688 ecr 1421373930], length 0
	0x0000:  4528 0034 8aab 4000 e806 18f1 23ab df24
	0x0010:  c0a8 2b87 01bb d8f0 fb9d f0a9 2ca6 9600
	0x0020:  8010 00b0 900b 0000 0101 080a 06dd 9fe8
	0x0030:  54b8 71ea
21:54:27.763673 Out 30:f7:72:29:e1:d3 ethertype IPv4 (0x0800), length 68: 192.168.43.135.42124 > 192.30.253.116.443: Flags [.], ack 1, win 277, options [nop,nop,TS val 3603317194 ecr 1865477103], length 0
	0x0000:  4500 0034 a614 4000 4006 eaec c0a8 2b87
	0x0010:  c01e fd74 a48c 01bb 6aca f62f b24e 3650
	0x0020:  8010 0115 6853 0000 0101 080a d6c6 41ca
	0x0030:  6f30 ebef
21:54:27.813613  In 00:00:00:00:00:00 ethertype IPv4 (0x0800), length 76: 127.0.0.1.48518 > 127.0.0.1.48518: UDP, length 32
	0x0000:  4500 003c bdc5 4000 4011 7ee9 7f00 0001
	0x0010:  7f00 0001 bd86 bd86 0028 fe3b 0100 0000
	0x0020:  2000 0000 c9ae 12ef b412 0200 a90d 0bef
	0x0030:  b412 0200 0000 0000 0000 0000
21:54:27.825507  In 00:00:00:00:00:00 ethertype IPv4 (0x0800), length 68: 127.0.0.1.48518 > 127.0.0.1.48518: UDP, length 24
	0x0000:  4500 0034 bdc6 4000 4011 7ef0 7f00 0001
	0x0010:  7f00 0001 bd86 bd86 0020 fe33 0800 0000
	0x0020:  1800 0000 fd32 0000 c055 0000 40dd 12ef
	0x0030:  b412 0200
21:54:27.827865  In 00:00:00:00:00:00 ethertype IPv4 (0x0800), length 76: 127.0.0.1.48518 > 127.0.0.1.48518: UDP, length 32
	0x0000:  4500 003c bdc7 4000 4011 7ee7 7f00 0001
	0x0010:  7f00 0001 bd86 bd86 0028 fe3b 0100 0000
	0x0020:  2000 0000 83e6 12ef b412 0200 73bf 12ef
	0x0030:  b412 0200 fd32 0000 0000 0000
21:54:27.838876  In 00:00:00:00:00:00 ethertype IPv4 (0x0800), length 980: 127.0.0.1.48518 > 127.0.0.1.48518: UDP, length 936
	0x0000:  4500 03c4 bdc8 4000 4011 7b5e 7f00 0001
	0x0010:  7f00 0001 bd86 bd86 03b0 01c4 0200 0000
	0x0020:  a803 0000 fd32 0000 0800 0000 0200 0000
	0x0030:  0000 0000 0000 0000 0000 0000 0000 0000
	0x0040:  0000 0000 eb04 0000 0000 0000 0400 0000
	0x0050:  0000 0000 1204 0000 0000 0000 0000 0000
	0x0060:  0000 0000 0000 0000 0000 0000 0000 0000
	0x0070:  0000 0000 0000 0000 0000 0000 0000 0000
	0x0080:  0000 0000 0000 0000 0000 0000 0000 0000
	0x0090:  0000 0000 0000 0000 0000 0000 0000 0000
	0x00a0:  0000 0000 2e00 0000 0000 0000 2e00 0000
	0x00b0:  0000 0000 660a 0000 0000 0000 0200 0000
	0x00c0:  0000 0000 0200 0000 0000 0000 0200 0000
	0x00d0:  0000 0000 0000 0000 0000 0000 0000 0000
	0x00e0:  0000 0000 0000 0000 0000 0000 0000 0000
	0x00f0:  0000 0000 0000 0000 0000 0000 0000 0000
	0x0100:  0000 0000 0000 0000 0000 0000 0000 0000
	0x0110:  0000 0000 0500 0000 0000 0000 0500 0000
	0x0120:  0000 0000 e104 0000 0000 0000 0000 0000
	0x0130:  0000 0000 0000 0000 0000 0000 0000 0000
	0x0140:  0000 0000 0000 0000 0000 0000 0000 0000
	0x0150:  0000 0000 0000 0000 0000 0000 0000 0000
	0x0160:  0000 0000 0000 0000 0000 0000 0000 0000
	0x0170:  0000 0000 0000 0000 0000 0000 0000 0000
	0x0180:  0000 0000 0200 0000 0000 0000 0200 0000
	0x0190:  0000 0000 630a 0000 0000 0000 0200 0000
	0x01a0:  0000 0000 0500 0000 0000 0000 0500 0000
	0x01b0:  0000 0000 0000 0000 0000 0000 0000 0000
	0x01c0:  0000 0000 0000 0000 0000 0000 0000 0000
	0x01d0:  0000 0000 0000 0000 0000 0000 0000 0000
	0x01e0:  0000 0000 0000 0000 0000 0000 0000 0000
	0x01f0:  0000 0000 0500 0000 0000 0000 0500 0000
	0x0200:  0000 0000 320a 0000 c055 0000 0000 0000
	0x0210:  0000 0000 0000 0000 0000 0000 0000 0000
	0x0220:  0000 0000 0000 0000 0000 0000 0000 0000
	0x0230:  0000 0000 0000 0000 0000 0000 0000 0000
	0x0240:  0000 0000 0000 0000 0000 0000 0000 0000
	0x0250:  0000 0000 0000 0000 0000 0000 0000 0000
	0x0260:  0000 0000 0100 0000 0000 0000 0100 0000
	0x0270:  0000 0000 770a 0000 0000 0000 0100 0000
	0x0280:  0000 0000 0100 0000 0000 0000 0100 0000
	0x0290:  0000 0000 0000 0000 0000 0000 0000 0000
	0x02a0:  0000 0000 0000 0000 0000 0000 0000 0000
	0x02b0:  0000 0000 0000 0000 0000 0000 0000 0000
	0x02c0:  0000 0000 0000 0000 0000 0000 0000 0000
	0x02d0:  0000 0000 0200 0000 0000 0000 0200 0000
	0x02e0:  0000 0000 290a 0000 0000 0000 0100 0000
	0x02f0:  0000 0000 0100 0000 0000 0000 0000 0000
	0x0300:  0000 0000 0000 0000 0000 0000 0000 0000
	0x0310:  0000 0000 0000 0000 0000 0000 0000 0000
	0x0320:  0000 0000 0000 0000 0000 0000 0000 0000
	0x0330:  0000 0000 0000 0000 0000 0000 0000 0000
	0x0340:  0000 0000 0100 0000 0000 0000 0100 0000
	0x0350:  0000 0000 380a 0000 c055 0000 0000 0000
	0x0360:  0000 0000 0000 0000 0000 0000 0000 0000
	0x0370:  0000 0000 0000 0000 0000 0000 0000 0000
	0x0380:  0000 0000 0000 0000 0000 0000 0000 0000
	0x0390:  0000 0000 0000 0000 0000 0000 0000 0000
	0x03a0:  0000 0000 0000 0000 0000 0000 0000 0000
	0x03b0:  0000 0000 0100 0000 0000 0000 0100 0000
	0x03c0:  0000 0000
21:54:27.838905  In 00:00:00:00:00:00 ethertype IPv4 (0x0800), length 420: 127.0.0.1.48518 > 127.0.0.1.48518: UDP, length 376
	0x0000:  4500 0194 bdc9 4000 4011 7d8d 7f00 0001
	0x0010:  7f00 0001 bd86 bd86 0180 ff93 0200 0000
	0x0020:  7801 0000 fd32 0000 0300 0000 0000 0000
	0x0030:  0000 0000 0000 0000 0000 0000 0000 0000
	0x0040:  0000 0000 7f0a 0000 0000 0000 0100 0000
	0x0050:  0000 0000 0100 0000 0000 0000 0100 0000
	0x0060:  0000 0000 0000 0000 0000 0000 0000 0000
	0x0070:  0000 0000 0000 0000 0000 0000 0000 0000
	0x0080:  0000 0000 0000 0000 0000 0000 0000 0000
	0x0090:  0000 0000 0000 0000 0000 0000 0000 0000
	0x00a0:  0000 0000 0200 0000 0000 0000 0200 0000
	0x00b0:  0000 0000 2b0a 0000 0000 0000 0000 0000
	0x00c0:  0000 0000 0000 0000 0000 0000 0000 0000
	0x00d0:  0000 0000 0000 0000 0000 0000 0000 0000
	0x00e0:  0000 0000 0000 0000 0000 0000 0000 0000
	0x00f0:  0000 0000 0000 0000 0000 0000 0000 0000
	0x0100:  0000 0000 0000 0000 0000 0000 0000 0000
	0x0110:  0000 0000 0100 0000 0000 0000 0100 0000
	0x0120:  0000 0000 5f0a 0000 0000 0000 0100 0000
	0x0130:  0000 0000 0200 0000 0000 0000 0200 0000
	0x0140:  0000 0000 0000 0000 0000 0000 0000 0000
	0x0150:  0000 0000 0000 0000 0000 0000 0000 0000
	0x0160:  0000 0000 0000 0000 0000 0000 0000 0000
	0x0170:  0000 0000 0000 0000 0000 0000 0000 0000
	0x0180:  0000 0000 0300 0000 0000 0000 0300 0000
	0x0190:  0000 0000
21:54:27.838915  In 00:00:00:00:00:00 ethertype IPv4 (0x0800), length 532: 127.0.0.1.48518 > 127.0.0.1.48518: UDP, length 488
	0x0000:  4500 0204 bdca 4000 4011 7d1c 7f00 0001
	0x0010:  7f00 0001 bd86 bd86 01f0 0004 0200 0000
	0x0020:  e801 0000 0000 0000 0400 0000 0000 0000
	0x0030:  0000 0000 0000 0000 0000 0000 0000 0000
	0x0040:  0000 0000 ee04 0000 0000 0000 0100 0000
	0x0050:  0000 0000 0300 0000 0000 0000 0000 0000
	0x0060:  0000 0000 0000 0000 0000 0000 0000 0000
	0x0070:  0000 0000 0000 0000 0000 0000 0000 0000
	0x0080:  0000 0000 0000 0000 0000 0000 0000 0000
	0x0090:  0000 0000 0000 0000 0000 0000 0000 0000
	0x00a0:  0000 0000 0500 0000 0000 0000 0500 0000
	0x00b0:  0000 0000 700a 0000 c055 0000 0300 0000
	0x00c0:  0000 0000 0300 0000 0000 0000 0300 0000
	0x00d0:  0000 0000 0000 0000 0000 0000 0000 0000
	0x00e0:  0000 0000 0000 0000 0000 0000 0000 0000
	0x00f0:  0000 0000 0000 0000 0000 0000 0000 0000
	0x0100:  0000 0000 0000 0000 0000 0000 0000 0000
	0x0110:  0000 0000 0400 0000 0000 0000 0400 0000
	0x0120:  0000 0000 6f0a 0000 c055 0000 0100 0000
	0x0130:  0000 0000 0100 0000 0000 0000 0100 0000
	0x0140:  0000 0000 0000 0000 0000 0000 0000 0000
	0x0150:  0000 0000 0000 0000 0000 0000 0000 0000
	0x0160:  0000 0000 0000 0000 0000 0000 0000 0000
	0x0170:  0000 0000 0000 0000 0000 0000 0000 0000
	0x0180:  0000 0000 0200 0000 0000 0000 0200 0000
	0x0190:  0000 0000 950b 0000 c055 0000 0400 0000
	0x01a0:  0000 0000 0000 0000 0000 0000 0000 0000
	0x01b0:  0000 0000 0000 0000 0000 0000 0000 0000
	0x01c0:  0000 0000 0000 0000 0000 0000 0000 0000
	0x01d0:  0000 0000 0000 0000 0000 0000 0000 0000
	0x01e0:  0000 0000 0000 0000 0000 0000 0000 0000
	0x01f0:  0000 0000 0400 0000 0000 0000 0400 0000
	0x0200:  0000 0000
21:54:28.261818  In 38:a4:ed:e1:ac:7f ethertype IPv4 (0x0800), length 68: 192.30.253.116.443 > 192.168.43.135.42124: Flags [.], ack 1, win 76, options [nop,nop,TS val 1865479725 ecr 3603264736], length 0
	0x0000:  4528 0034 927a 4000 3006 0e5f c01e fd74
	0x0010:  c0a8 2b87 01bb a48c b24e 3650 6aca f630
	0x0020:  8010 004c 2bc8 0000 0101 080a 6f30 f62d
	0x0030:  d6c5 74e0
21:54:28.531525 Out 30:f7:72:29:e1:d3 ethertype ARP (0x0806), length 44: Request who-has 192.168.43.1 tell 192.168.43.135, length 28
	0x0000:  0001 0800 0604 0001 30f7 7229 e1d3 c0a8
	0x0010:  2b87 0000 0000 0000 c0a8 2b01
21:54:28.533283  In 38:a4:ed:e1:ac:7f ethertype ARP (0x0806), length 44: Reply 192.168.43.1 is-at 38:a4:ed:e1:ac:7f, length 28
	0x0000:  0001 0800 0604 0002 38a4 ede1 ac7f c0a8
	0x0010:  2b01 30f7 7229 e1d3 c0a8 2b87
21:54:29.458644   M 38:a4:ed:e1:ac:7f ethertype IPv6 (0x86dd), length 88: fe80::9cbc:26ff:fec8:eb23 > ff02::1:ffd2:410c: ICMP6, neighbor solicitation, who has 2405:204:a105:71a:9df5:216e:3dd2:410c, length 32
	0x0000:  6000 0000 0020 3aff fe80 0000 0000 0000
	0x0010:  9cbc 26ff fec8 eb23 ff02 0000 0000 0000
	0x0020:  0000 0001 ffd2 410c 8700 ac26 0000 0000
	0x0030:  2405 0204 a105 071a 9df5 216e 3dd2 410c
	0x0040:  0101 38a4 ede1 ac7f
21:54:29.458703 Out 30:f7:72:29:e1:d3 ethertype IPv6 (0x86dd), length 88: 2405:204:a105:71a:9df5:216e:3dd2:410c > fe80::9cbc:26ff:fec8:eb23: ICMP6, neighbor advertisement, tgt is 2405:204:a105:71a:9df5:216e:3dd2:410c, length 32
	0x0000:  6000 0000 0020 3aff 2405 0204 a105 071a
	0x0010:  9df5 216e 3dd2 410c fe80 0000 0000 0000
	0x0020:  9cbc 26ff fec8 eb23 8800 cbaf 6000 0000
	0x0030:  2405 0204 a105 071a 9df5 216e 3dd2 410c
	0x0040:  0201 30f7 7229 e1d3
21:54:30.323610 Out 30:f7:72:29:e1:d3 ethertype IPv4 (0x0800), length 68: 192.168.43.135.45068 > 117.18.237.29.80: Flags [.], ack 1, win 266, options [nop,nop,TS val 1038261055 ecr 1332311089], length 0
	0x0000:  4500 0034 7e80 4000 4006 6de4 c0a8 2b87
	0x0010:  7512 ed1d b00c 0050 e87c cbcf 58f9 884c
	0x0020:  8010 010a 44a8 0000 0101 080a 3de2 9b3f
	0x0030:  4f69 7431
21:54:30.420446  In 38:a4:ed:e1:ac:7f ethertype IPv4 (0x0800), length 99: 192.30.253.112.443 > 192.168.43.135.36996: Flags [P.], seq 1:32, ack 1, win 41, options [nop,nop,TS val 2518865239 ecr 2028072065], length 31
	0x0000:  4528 0053 c453 4000 3106 db6a c01e fd70
	0x0010:  c0a8 2b87 01bb 9084 4b91 883a 8272 3aa4
	0x0020:  8018 0029 6b77 0000 0101 080a 9622 d557
	0x0030:  78e1 ec81 1503 0300 1a3b b036 aa0e c23c
	0x0040:  e190 d63d 2e74 72fd 1092 6116 005d c292
	0x0050:  a29d ee
21:54:30.420471 Out 30:f7:72:29:e1:d3 ethertype IPv4 (0x0800), length 68: 192.168.43.135.36996 > 192.30.253.112.443: Flags [.], ack 32, win 594, options [nop,nop,TS val 2028132055 ecr 2518865239], length 0
	0x0000:  4500 0034 26aa 4000 4006 6a5b c0a8 2b87
	0x0010:  c01e fd70 9084 01bb 8272 3aa4 4b91 8859
	0x0020:  8010 0252 ec36 0000 0101 080a 78e2 d6d7
	0x0030:  9622 d557
21:54:30.420624 Out 30:f7:72:29:e1:d3 ethertype IPv4 (0x0800), length 68: 192.168.43.135.36996 > 192.30.253.112.443: Flags [F.], seq 1, ack 32, win 594, options [nop,nop,TS val 2028132055 ecr 2518865239], length 0
	0x0000:  4500 0034 26ab 4000 4006 6a5a c0a8 2b87
	0x0010:  c01e fd70 9084 01bb 8272 3aa4 4b91 8859
	0x0020:  8011 0252 ec35 0000 0101 080a 78e2 d6d7
	0x0030:  9622 d557
21:54:30.421359  In 38:a4:ed:e1:ac:7f ethertype IPv4 (0x0800), length 68: 192.30.253.112.443 > 192.168.43.135.36996: Flags [F.], seq 32, ack 1, win 41, options [nop,nop,TS val 2518865239 ecr 2028072065], length 0
	0x0000:  4528 0034 c454 4000 3106 db88 c01e fd70
	0x0010:  c0a8 2b87 01bb 9084 4b91 8859 8272 3aa4
	0x0020:  8011 0029 d8b5 0000 0101 080a 9622 d557
	0x0030:  78e1 ec81
21:54:30.421378 Out 30:f7:72:29:e1:d3 ethertype IPv4 (0x0800), length 68: 192.168.43.135.36996 > 192.30.253.112.443: Flags [.], ack 33, win 594, options [nop,nop,TS val 2028132056 ecr 2518865239], length 0
	0x0000:  4500 0034 26ac 4000 4006 6a59 c0a8 2b87
	0x0010:  c01e fd70 9084 01bb 8272 3aa5 4b91 885a
	0x0020:  8010 0252 ec33 0000 0101 080a 78e2 d6d8
	0x0030:  9622 d557
21:54:30.426831  In 38:a4:ed:e1:ac:7f ethertype IPv4 (0x0800), length 68: 117.18.237.29.80 > 192.168.43.135.45068: Flags [.], ack 1, win 290, options [nop,nop,TS val 1332313651 ecr 1038148228], length 0
	0x0000:  4528 0034 8de9 4000 3906 6553 7512 ed1d
	0x0010:  c0a8 2b87 0050 b00c 58f9 884c e87c cbd0
	0x0020:  8010 0122 f349 0000 0101 080a 4f69 7e33
	0x0030:  3de0 e284
21:54:30.823135  In 38:a4:ed:e1:ac:7f ethertype IPv4 (0x0800), length 68: 192.30.253.112.443 > 192.168.43.135.36996: Flags [.], ack 2, win 41, options [nop,nop,TS val 2518865325 ecr 2028132055], length 0
	0x0000:  4528 0034 c455 4000 3106 db87 c01e fd70
	0x0010:  c0a8 2b87 01bb 9084 4b91 885a 8272 3aa5
	0x0020:  8010 0029 ee07 0000 0101 080a 9622 d5ad
	0x0030:  78e2 d6d7
21:54:32.449437 Out 30:f7:72:29:e1:d3 ethertype IPv6 (0x86dd), length 134: 2405:204:a105:71a:9df5:216e:3dd2:410c.42252 > 2404:6800:4009:806::200e.443: Flags [P.], seq 1606717157:1606717203, ack 2887648690, win 327, options [nop,nop,TS val 3389414845 ecr 1140105016], length 46
	0x0000:  6005 e237 004e 06ff 2405 0204 a105 071a
	0x0010:  9df5 216e 3dd2 410c 2404 6800 4009 0806
	0x0020:  0000 0000 0000 200e a50c 01bb 5fc4 8ee5
	0x0030:  ac1e 05b2 8018 0147 da74 0000 0101 080a
	0x0040:  ca06 5dbd 43f4 9f38 1703 0300 2900 0000
	0x0050:  0000 0000 1552 858e 1220 a3cf 02a4 84da
	0x0060:  58f8 92ee b9d2 9d63 c4a9 2e4b 1b2e 63c2
	0x0070:  5e21 1689 030d
21:54:32.449512 Out 30:f7:72:29:e1:d3 ethertype IPv4 (0x0800), length 114: 192.168.43.135.39052 > 18.232.242.2.443: Flags [P.], seq 2145202874:2145202920, ack 1902099067, win 279, options [nop,nop,TS val 2601075328 ecr 1706952583], length 46
	0x0000:  4500 0062 9cb0 4000 4006 accb c0a8 2b87
	0x0010:  12e8 f202 988c 01bb 7fdd 32ba 715f ba7b
	0x0020:  8018 0117 caf2 0000 0101 080a 9b09 4280
	0x0030:  65be 0787 1703 0300 2900 0000 0000 0000
	0x0040:  0ee1 f258 4f1f 44f3 128c 7a5d 493a 2850
	0x0050:  fd1c 385b 734c 8b0b 8429 f9f7 37e7 8515
	0x0060:  b027
21:54:32.563381  In 38:a4:ed:e1:ac:7f ethertype IPv6 (0x86dd), length 88: 2404:6800:4009:806::200e.443 > 2405:204:a105:71a:9df5:216e:3dd2:410c.42252: Flags [.], ack 46, win 143, options [nop,nop,TS val 1140163126 ecr 3389414845], length 0
	0x0000:  628b b956 0020 063b 2404 6800 4009 0806
	0x0010:  0000 0000 0000 200e 2405 0204 a105 071a
	0x0020:  9df5 216e 3dd2 410c 01bb a50c ac1e 05b2
	0x0030:  5fc4 8f13 8010 008f 4042 0000 0101 080a
	0x0040:  43f5 8236 ca06 5dbd
21:54:32.563703  In 38:a4:ed:e1:ac:7f ethertype IPv6 (0x86dd), length 134: 2404:6800:4009:806::200e.443 > 2405:204:a105:71a:9df5:216e:3dd2:410c.42252: Flags [P.], seq 1:47, ack 46, win 143, options [nop,nop,TS val 1140163126 ecr 3389414845], length 46
	0x0000:  628b b956 004e 063b 2404 6800 4009 0806
	0x0010:  0000 0000 0000 200e 2405 0204 a105 071a
	0x0020:  9df5 216e 3dd2 410c 01bb a50c ac1e 05b2
	0x0030:  5fc4 8f13 8018 008f f826 0000 0101 080a
	0x0040:  43f5 8236 ca06 5dbd 1703 0300 2900 0000
	0x0050:  0000 0000 1b6b 22a9 2fc8 3cbc 5ec7 fa72
	0x0060:  2815 bc91 bc1b 1d02 c78a 67bb b2a5 b17c
	0x0070:  4263 4594 27ea
21:54:32.607556 Out 30:f7:72:29:e1:d3 ethertype IPv6 (0x86dd), length 88: 2405:204:a105:71a:9df5:216e:3dd2:410c.42252 > 2404:6800:4009:806::200e.443: Flags [.], ack 47, win 327, options [nop,nop,TS val 3389415003 ecr 1140163126], length 0
	0x0000:  6005 e237 0020 06ff 2405 0204 a105 071a
	0x0010:  9df5 216e 3dd2 410c 2404 6800 4009 0806
	0x0020:  0000 0000 0000 200e a50c 01bb 5fc4 8f13
	0x0030:  ac1e 05e0 8010 0147 3ebe 0000 0101 080a
	0x0040:  ca06 5e5b 43f5 8236
21:54:32.752058  In 38:a4:ed:e1:ac:7f ethertype IPv4 (0x0800), length 114: 18.232.242.2.443 > 192.168.43.135.39052: Flags [P.], seq 1:47, ack 46, win 193, options [nop,nop,TS val 1706967276 ecr 2601075328], length 46
	0x0000:  4528 0062 36ea 4000 e806 6a69 12e8 f202
	0x0010:  c0a8 2b87 01bb 988c 715f ba7b 7fdd 32e8
	0x0020:  8018 00c1 952f 0000 0101 080a 65be 40ec
	0x0030:  9b09 4280 1703 0300 2919 8c47 ebd5 e5c4
	0x0040:  7686 9815 4937 a47d 7019 b543 4b1c 9610
	0x0050:  fd97 551d 8532 76aa f5cc 68fb 2b11 7f1c
	0x0060:  f6fd
21:54:32.752095 Out 30:f7:72:29:e1:d3 ethertype IPv4 (0x0800), length 68: 192.168.43.135.39052 > 18.232.242.2.443: Flags [.], ack 47, win 279, options [nop,nop,TS val 2601075631 ecr 1706967276], length 0
	0x0000:  4500 0034 9cb1 4000 4006 acf8 c0a8 2b87
	0x0010:  12e8 f202 988c 01bb 7fdd 32e8 715f baa9
	0x0020:  8010 0117 8612 0000 0101 080a 9b09 43af
	0x0030:  65be 40ec
21:54:32.848905 Out 30:f7:72:29:e1:d3 ethertype IPv4 (0x0800), length 68: 192.168.43.135.45068 > 117.18.237.29.80: Flags [F.], seq 1, ack 1, win 266, options [nop,nop,TS val 1038263578 ecr 1332313651], length 0
	0x0000:  4500 0034 7e81 4000 4006 6de3 c0a8 2b87
	0x0010:  7512 ed1d b00c 0050 e87c cbd0 58f9 884c
	0x0020:  8011 010a 30c9 0000 0101 080a 3de2 a51a
	0x0030:  4f69 7e33
21:54:32.943948  In 38:a4:ed:e1:ac:7f ethertype IPv4 (0x0800), length 68: 117.18.237.29.80 > 192.168.43.135.45068: Flags [F.], seq 1, ack 2, win 290, options [nop,nop,TS val 1332314281 ecr 1038263578], length 0
	0x0000:  4528 0034 8dea 4000 3906 6552 7512 ed1d
	0x0010:  c0a8 2b87 0050 b00c 58f9 884c e87c cbd1
	0x0020:  8011 0122 2e3a 0000 0101 080a 4f69 80a9
	0x0030:  3de2 a51a
21:54:32.943990 Out 30:f7:72:29:e1:d3 ethertype IPv4 (0x0800), length 68: 192.168.43.135.45068 > 117.18.237.29.80: Flags [.], ack 2, win 266, options [nop,nop,TS val 1038263673 ecr 1332314281], length 0
	0x0000:  4500 0034 7e82 4000 4006 6de2 c0a8 2b87
	0x0010:  7512 ed1d b00c 0050 e87c cbd1 58f9 884d
	0x0020:  8010 010a 2df3 0000 0101 080a 3de2 a579
	0x0030:  4f69 80a9
21:54:33.017100  In 38:a4:ed:e1:ac:7f ethertype IPv4 (0x0800), length 99: 192.30.253.112.443 > 192.168.43.135.36992: Flags [P.], seq 1:32, ack 1, win 44, options [nop,nop,TS val 2518865886 ecr 2028074740], length 31
	0x0000:  4528 0053 25c2 4000 3006 7afc c01e fd70
	0x0010:  c0a8 2b87 01bb 9080 cd5c b6f7 e663 2e8e
	0x0020:  8018 002c 271b 0000 0101 080a 9622 d7de
	0x0030:  78e1 f6f4 1503 0300 1a47 6437 23c6 5618
	0x0040:  68fd 456e 6eba e399 7973 db4b b779 bd63
	0x0050:  4179 80
21:54:33.017142 Out 30:f7:72:29:e1:d3 ethertype IPv4 (0x0800), length 68: 192.168.43.135.36992 > 192.30.253.112.443: Flags [.], ack 32, win 1444, options [nop,nop,TS val 2028134649 ecr 2518865886], length 0
	0x0000:  4500 0034 14fd 4000 4006 7c08 c0a8 2b87
	0x0010:  c01e fd70 9080 01bb e663 2e8e cd5c b716
	0x0020:  8010 05a4 d3db 0000 0101 080a 78e2 e0f9
	0x0030:  9622 d7de
21:54:33.017267  In 38:a4:ed:e1:ac:7f ethertype IPv4 (0x0800), length 68: 192.30.253.112.443 > 192.168.43.135.36992: Flags [F.], seq 32, ack 1, win 44, options [nop,nop,TS val 2518865886 ecr 2028074740], length 0
	0x0000:  4528 0034 25c3 4000 3006 7b1a c01e fd70
	0x0010:  c0a8 2b87 01bb 9080 cd5c b716 e663 2e8e
	0x0020:  8011 002c c358 0000 0101 080a 9622 d7de
	0x0030:  78e1 f6f4
21:54:33.017368 Out 30:f7:72:29:e1:d3 ethertype IPv4 (0x0800), length 68: 192.168.43.135.36992 > 192.30.253.112.443: Flags [F.], seq 1, ack 33, win 1444, options [nop,nop,TS val 2028134650 ecr 2518865886], length 0
	0x0000:  4500 0034 14fe 4000 4006 7c07 c0a8 2b87
	0x0010:  c01e fd70 9080 01bb e663 2e8e cd5c b717
	0x0020:  8011 05a4 d3d8 0000 0101 080a 78e2 e0fa
	0x0030:  9622 d7de
21:54:33.385326  In 38:a4:ed:e1:ac:7f ethertype IPv4 (0x0800), length 68: 192.30.253.112.443 > 192.168.43.135.36992: Flags [.], ack 2, win 44, options [nop,nop,TS val 2518865972 ecr 2028134650], length 0
	0x0000:  4528 0034 25c4 4000 3006 7b19 c01e fd70
	0x0010:  c0a8 2b87 01bb 9080 cd5c b717 e663 2e8f
	0x0020:  8010 002c d8fa 0000 0101 080a 9622 d834
	0x0030:  78e2 e0fa
21:54:33.622118   M 38:a4:ed:e1:ac:7f ethertype IPv6 (0x86dd), length 88: fe80::9cbc:26ff:fec8:eb23 > ff02::1:ffaf:1b9a: ICMP6, neighbor solicitation, who has 2405:204:a105:71a:2c65:ab01:4aaf:1b9a, length 32
	0x0000:  6000 0000 0020 3aff fe80 0000 0000 0000
	0x0010:  9cbc 26ff fec8 eb23 ff02 0000 0000 0000
	0x0020:  0000 0001 ffaf 1b9a 8700 d24d 0000 0000
	0x0030:  2405 0204 a105 071a 2c65 ab01 4aaf 1b9a
	0x0040:  0101 38a4 ede1 ac7f
21:54:33.622161 Out 30:f7:72:29:e1:d3 ethertype IPv6 (0x86dd), length 88: 2405:204:a105:71a:2c65:ab01:4aaf:1b9a > fe80::9cbc:26ff:fec8:eb23: ICMP6, neighbor advertisement, tgt is 2405:204:a105:71a:2c65:ab01:4aaf:1b9a, length 32
	0x0000:  6000 0000 0020 3aff 2405 0204 a105 071a
	0x0010:  2c65 ab01 4aaf 1b9a fe80 0000 0000 0000
	0x0020:  9cbc 26ff fec8 eb23 8800 ccd3 6000 0000
	0x0030:  2405 0204 a105 071a 2c65 ab01 4aaf 1b9a
	0x0040:  0201 30f7 7229 e1d3
21:54:34.025320  In 38:a4:ed:e1:ac:7f ethertype IPv4 (0x0800), length 99: 34.199.95.10.443 > 192.168.43.135.48374: Flags [P.], seq 1:32, ack 1, win 66, options [nop,nop,TS val 304103826 ecr 3148250328], length 31
	0x0000:  4528 0053 7ddc 4000 e906 a59f 22c7 5f0a
	0x0010:  c0a8 2b87 01bb bcf6 747b 993b 2edc 395e
	0x0020:  8018 0042 5d8a 0000 0101 080a 1220 4192
	0x0030:  bba6 7cd8 1503 0300 1a7c e255 037d cdf4
	0x0040:  f3ed 5505 9dd4 9579 8220 ebeb 9bf9 1bce
	0x0050:  f897 69
21:54:34.025369 Out 30:f7:72:29:e1:d3 ethertype IPv4 (0x0800), length 68: 192.168.43.135.48374 > 34.199.95.10.443: Flags [.], ack 32, win 335, options [nop,nop,TS val 3148310795 ecr 304103826], length 0
	0x0000:  4500 0034 2e99 4000 4006 9e2a c0a8 2b87
	0x0010:  22c7 5f0a bcf6 01bb 2edc 395e 747b 995a
	0x0020:  8010 014f 5a46 0000 0101 080a bba7 690b
	0x0030:  1220 4192
21:54:34.025565  In 38:a4:ed:e1:ac:7f ethertype IPv4 (0x0800), length 99: 35.171.223.36.443 > 192.168.43.135.55536: Flags [P.], seq 1:32, ack 1, win 176, options [nop,nop,TS val 115189544 ecr 1421373930], length 31
	0x0000:  4528 0053 8aac 4000 e806 18d1 23ab df24
	0x0010:  c0a8 2b87 01bb d8f0 fb9d f0a9 2ca6 9600
	0x0020:  8018 00b0 4ede 0000 0101 080a 06dd a728
	0x0030:  54b8 71ea 1503 0300 1ac2 97b7 a6c3 d8db
	0x0040:  5f65 3316 373e 934d 622a 2eab 0d8a 2ef1
	0x0050:  ad51 18
21:54:34.025578 Out 30:f7:72:29:e1:d3 ethertype IPv4 (0x0800), length 68: 192.168.43.135.55536 > 35.171.223.36.443: Flags [.], ack 32, win 263, options [nop,nop,TS val 1421434097 ecr 115189544], length 0
	0x0000:  4500 0034 7ce3 4000 4006 cee1 c0a8 2b87
	0x0010:  23ab df24 d8f0 01bb 2ca6 9600 fb9d f0c8
	0x0020:  8010 0107 9d4d 0000 0101 080a 54b9 5cf1
	0x0030:  06dd a728
21:54:34.025752 Out 30:f7:72:29:e1:d3 ethertype IPv4 (0x0800), length 68: 192.168.43.135.48374 > 34.199.95.10.443: Flags [F.], seq 1, ack 32, win 335, options [nop,nop,TS val 3148310795 ecr 304103826], length 0
	0x0000:  4500 0034 2e9a 4000 4006 9e29 c0a8 2b87
	0x0010:  22c7 5f0a bcf6 01bb 2edc 395e 747b 995a
	0x0020:  8011 014f 5a45 0000 0101 080a bba7 690b
	0x0030:  1220 4192
21:54:34.026141 Out 30:f7:72:29:e1:d3 ethertype IPv4 (0x0800), length 68: 192.168.43.135.55536 > 35.171.223.36.443: Flags [F.], seq 1, ack 32, win 263, options [nop,nop,TS val 1421434098 ecr 115189544], length 0
	0x0000:  4500 0034 7ce4 4000 4006 cee0 c0a8 2b87
	0x0010:  23ab df24 d8f0 01bb 2ca6 9600 fb9d f0c8
	0x0020:  8011 0107 9d4b 0000 0101 080a 54b9 5cf2
	0x0030:  06dd a728
21:54:34.345851  In 38:a4:ed:e1:ac:7f ethertype IPv4 (0x0800), length 68: 34.199.95.10.443 > 192.168.43.135.48374: Flags [F.], seq 32, ack 2, win 66, options [nop,nop,TS val 304103948 ecr 3148310795], length 0
	0x0000:  4528 0034 7ddd 4000 e906 a5bd 22c7 5f0a
	0x0010:  c0a8 2b87 01bb bcf6 747b 995a 2edc 395f
	0x0020:  8011 0042 5ad7 0000 0101 080a 1220 420c
	0x0030:  bba7 690b
21:54:34.345892 Out 30:f7:72:29:e1:d3 ethertype IPv4 (0x0800), length 68: 192.168.43.135.48374 > 34.199.95.10.443: Flags [.], ack 33, win 335, options [nop,nop,TS val 3148311115 ecr 304103948], length 0
	0x0000:  4500 0034 2e9b 4000 4006 9e28 c0a8 2b87
	0x0010:  22c7 5f0a bcf6 01bb 2edc 395f 747b 995b
	0x0020:  8010 014f 588a 0000 0101 080a bba7 6a4b
	0x0030:  1220 420c
21:54:34.345996  In 38:a4:ed:e1:ac:7f ethertype IPv4 (0x0800), length 68: 35.171.223.36.443 > 192.168.43.135.55536: Flags [F.], seq 32, ack 2, win 176, options [nop,nop,TS val 115189633 ecr 1421434098], length 0
	0x0000:  4528 0034 8aad 4000 e806 18ef 23ab df24
	0x0010:  c0a8 2b87 01bb d8f0 fb9d f0c8 2ca6 9601
	0x0020:  8011 00b0 9d48 0000 0101 080a 06dd a781
	0x0030:  54b9 5cf2
21:54:34.346007 Out 30:f7:72:29:e1:d3 ethertype IPv4 (0x0800), length 68: 192.168.43.135.55536 > 35.171.223.36.443: Flags [.], ack 33, win 263, options [nop,nop,TS val 1421434417 ecr 115189633], length 0
	0x0000:  4500 0034 7ce5 4000 4006 cedf c0a8 2b87
	0x0010:  23ab df24 d8f0 01bb 2ca6 9601 fb9d f0c9
	0x0020:  8010 0107 9bb2 0000 0101 080a 54b9 5e31
	0x0030:  06dd a781
21:54:34.666418  In 38:a4:ed:e1:ac:7f ethertype IPv4 (0x0800), length 99: 192.30.253.116.443 > 192.168.43.135.42124: Flags [P.], seq 1:32, ack 1, win 76, options [nop,nop,TS val 1865481315 ecr 3603264736], length 31
	0x0000:  4528 0053 927b 4000 3006 0e3f c01e fd74
	0x0010:  c0a8 2b87 01bb a48c b24e 3650 6aca f630
	0x0020:  8018 004c fe14 0000 0101 080a 6f30 fc63
	0x0030:  d6c5 74e0 1503 0300 1ac4 6822 9450 1ca3
	0x0040:  b016 97f0 409b 231a f514 a937 b19a 4cc2
	0x0050:  6512 2e
21:54:34.666464 Out 30:f7:72:29:e1:d3 ethertype IPv4 (0x0800), length 68: 192.168.43.135.42124 > 192.30.253.116.443: Flags [.], ack 32, win 277, options [nop,nop,TS val 3603324092 ecr 1865481315], length 0
	0x0000:  4500 0034 a615 4000 4006 eaeb c0a8 2b87
	0x0010:  c01e fd74 a48c 01bb 6aca f630 b24e 366f
	0x0020:  8010 0115 3ccd 0000 0101 080a d6c6 5cbc
	0x0030:  6f30 fc63
21:54:34.666684 Out 30:f7:72:29:e1:d3 ethertype IPv4 (0x0800), length 68: 192.168.43.135.42124 > 192.30.253.116.443: Flags [F.], seq 1, ack 32, win 277, options [nop,nop,TS val 3603324092 ecr 1865481315], length 0
	0x0000:  4500 0034 a616 4000 4006 eaea c0a8 2b87
	0x0010:  c01e fd74 a48c 01bb 6aca f630 b24e 366f
	0x0020:  8011 0115 3ccc 0000 0101 080a d6c6 5cbc
	0x0030:  6f30 fc63
21:54:34.666692  In 38:a4:ed:e1:ac:7f ethertype IPv4 (0x0800), length 68: 192.30.253.116.443 > 192.168.43.135.42124: Flags [F.], seq 32, ack 1, win 76, options [nop,nop,TS val 1865481315 ecr 3603264736], length 0
	0x0000:  4528 0034 927c 4000 3006 0e5d c01e fd74
	0x0010:  c0a8 2b87 01bb a48c b24e 366f 6aca f630
	0x0020:  8011 004c 2572 0000 0101 080a 6f30 fc63
	0x0030:  d6c5 74e0
21:54:34.666726 Out 30:f7:72:29:e1:d3 ethertype IPv4 (0x0800), length 68: 192.168.43.135.42124 > 192.30.253.116.443: Flags [.], ack 33, win 277, options [nop,nop,TS val 3603324092 ecr 1865481315], length 0
	0x0000:  4500 0034 a617 4000 4006 eae9 c0a8 2b87
	0x0010:  c01e fd74 a48c 01bb 6aca f631 b24e 3670
	0x0020:  8010 0115 3ccb 0000 0101 080a d6c6 5cbc
	0x0030:  6f30 fc63
21:54:34.982816   M 38:a4:ed:e1:ac:7f ethertype IPv6 (0x86dd), length 88: fe80::9cbc:26ff:fec8:eb23 > ff02::1:ffc4:c608: ICMP6, neighbor solicitation, who has fe80::a9ac:b0bf:96c4:c608, length 32
	0x0000:  6000 0000 0020 3aff fe80 0000 0000 0000
	0x0010:  9cbc 26ff fec8 eb23 ff02 0000 0000 0000
	0x0020:  0000 0001 ffc4 c608 8700 7de8 0000 0000
	0x0030:  fe80 0000 0000 0000 a9ac b0bf 96c4 c608
	0x0040:  0101 38a4 ede1 ac7f
21:54:34.982869 Out 30:f7:72:29:e1:d3 ethertype IPv6 (0x86dd), length 88: fe80::a9ac:b0bf:96c4:c608 > fe80::9cbc:26ff:fec8:eb23: ICMP6, neighbor advertisement, tgt is fe80::a9ac:b0bf:96c4:c608, length 32
	0x0000:  6000 0000 0020 3aff fe80 0000 0000 0000
	0x0010:  a9ac b0bf 96c4 c608 fe80 0000 0000 0000
	0x0020:  9cbc 26ff fec8 eb23 8800 7910 6000 0000
	0x0030:  fe80 0000 0000 0000 a9ac b0bf 96c4 c608
	0x0040:  0201 30f7 7229 e1d3
21:54:35.308414  In 38:a4:ed:e1:ac:7f ethertype IPv4 (0x0800), length 68: 192.30.253.116.443 > 192.168.43.135.42124: Flags [.], ack 2, win 76, options [nop,nop,TS val 1865481447 ecr 3603324092], length 0
	0x0000:  4528 0034 927d 4000 3006 0e5c c01e fd74
	0x0010:  c0a8 2b87 01bb a48c b24e 3670 6aca f631
	0x0020:  8010 004c 3d10 0000 0101 080a 6f30 fce7
	0x0030:  d6c6 5cbc
21:54:35.308445  In 38:a4:ed:e1:ac:7f ethertype IPv4 (0x0800), length 99: 192.30.253.124.443 > 192.168.43.135.37834: Flags [P.], seq 4133748303:4133748334, ack 595284292, win 31, options [nop,nop,TS val 1881279026 ecr 417377473], length 31
	0x0000:  4528 0053 32c5 4000 3106 6ced c01e fd7c
	0x0010:  c0a8 2b87 01bb 93ca f663 fe4f 237b 5144
	0x0020:  8018 001f 8b23 0000 0101 080a 7022 0a32
	0x0030:  18e0 acc1 1703 0300 1acc c656 1197 2dec
	0x0040:  1ad0 d234 6f62 a372 9f34 06d8 d206 cfa4
	0x0050:  fd5d 83
21:54:35.308612 Out 30:f7:72:29:e1:d3 ethertype IPv4 (0x0800), length 103: 192.168.43.135.37834 > 192.30.253.124.443: Flags [P.], seq 1:36, ack 31, win 245, options [nop,nop,TS val 417438067 ecr 1881279026], length 35
	0x0000:  4500 0057 47e5 4000 4006 48f1 c0a8 2b87
	0x0010:  c01e fd7c 93ca 01bb 237b 5144 f663 fe6e
	0x0020:  8018 00f5 c2e3 0000 0101 080a 18e1 9973
	0x0030:  7022 0a32 1703 0300 1e00 0000 0000 0000
	0x0040:  031a ec9e d5d4 e7fa efee 7022 404e 3473
	0x0050:  17a5 933f afe9 c8
21:54:35.947637  In 38:a4:ed:e1:ac:7f ethertype IPv4 (0x0800), length 68: 192.30.253.124.443 > 192.168.43.135.37834: Flags [.], ack 36, win 31, options [nop,nop,TS val 1881279162 ecr 417438067], length 0
	0x0000:  4528 0034 32c6 4000 3106 6d0b c01e fd7c
	0x0010:  c0a8 2b87 01bb 93ca f663 fe6e 237b 5167
	0x0020:  8010 001f a067 0000 0101 080a 7022 0aba
	0x0030:  18e1 9973
21:54:36.943165   B 38:a4:ed:e1:ac:7f ethertype ARP (0x0806), length 44: Request who-has 192.168.43.135 tell 192.168.43.1, length 28
	0x0000:  0001 0800 0604 0001 38a4 ede1 ac7f c0a8
	0x0010:  2b01 0000 0000 0000 c0a8 2b87
